:100000000C9432060C946A060C946A060C946A06E8
:100010000C946A060C946A060C946A060C946A06A0
:100020000C946A060C946A060C94542A0C94272BA0
:100030000C9453230C946A060C946A060C946A067A
:100040000C946A060C946A060C946A060C946A0670
:100050000C946A060C94EB230C946A060C946A06C2
:100060000C946A060C946A060C946A060C946A0650
:100070000C946A060C946A060C946A060C946A0640
:100080000C946A060C946A060C946A060C946A0630
:100090000C946A060C946A060C946A060C946A0620
:1000A0000C946A060C946A060C946A060000000020
:1000B0000000000000000000000000000000000040
:1000C0000000000000000080E070381818D8D8D078
:1000D000D0901030F070206070D8ECECA4B4B494E0
:1000E00096D6C64644C4C484848C8C8C8888C8D870
:1000F0009898909090909090909090901010F0F828
:100100009C8E0602060E1C78E0C0F0F0F8F8D8D8F5
:10011000D0D0B0F0E00000000000000000000000BF
:1001200000000000000000000000000000000000CF
:1001300000000000000000000000000000000000BF
:10014000C0E0E02030383FE7E160606E4E4B4F4F3B
:100150004D41FCFFF3F090909697959D9D8D8D8974
:100160008D8D1F171216DFFDE8B8B81818D0F030C3
:100170001818080808080848484949C9FDC786866C
:100180008785BF60C0801E1B31393D0C0404050DFE
:100190000F0F0F03071CF8E0000000000000000034
:1001A000000000000000000000000000000000004F
:1001B000000000000000000000000000000000003F
:1001C00007070D0D19F9F90F0F09097DFDFD3DFD1B
:1001D000FDED05050505050587C6C6C6C2C2434334
:1001E000434363F3F1B0ECFC7E773333133F3F308E
:1001F0006347404040404050505050E0FF3C3C0C72
:100200000C04849F9BF160000000000000000000CF
:1002100000000080C0E03F1F000000000000000060
:1002200000000000000000000000000000000000CE
:1002300000000000000000000000000000000000BE
:100240000000000000000107060C0C0D0507070761
:100250000707060E0E0B1B31213018180F1F1F3F0A
:100260003B2B3F3F3D3527272626223232321212C2
:100270001A1A1A0B0B0B0B09090909090D0D0D3F71
:100280007FCFC18181C0FC3C181818081C1C343673
:100290003633331B1F000000000000000000000088
:1002A000000000000000000000000000000000004E
:1002B000000000000000000000000000000000003E
:1002C000000000000000000000000000000000002E
:1002D000000000000000000000000000000000001E
:1002E000000000000000000000000000000000000E
:1002F00000000000000000000000000000000000FE
:1003000000000000010100000000000000000000EB
:1003100000000000000000000000000000000000DD
:1003200000000000000000000000000000000000CD
:1003300000000000000000000000000000000000BD
:1003400000000000000000000000000000000000AD
:10035000000000000000000000000000000000009D
:10036000000000000000000000000000000000008D
:10037000000000000000000000000000000000007D
:10038000000000000000000000000000000000006D
:10039000000000000000000000000000000000005D
:1003A000000000000000000000000000000000004D
:1003B000000000000000000000000000000000003D
:1003C000000000000000000000000000000000002D
:1003D000000000000000000000000000000000001D
:1003E000000000000000000000000000000000000D
:1003F00000000000000000000000000000000000FD
:1004000000000000000000000000000000000000EC
:1004100000000000000000000000000000000000DC
:1004200000000000000000000000000000000000CC
:1004300000000000000000000000000000000000BC
:1004400000000000000000000000000000000000AC
:10045000000000000000000000000000000000009C
:10046000000000000000000000000000000000008C
:10047000000000000000000000000000000000007C
:10048000000000000000000000000000000000006C
:10049000000000000000000000000000000000005C
:1004A000000000000000000000000000000000004C
:1004B000000000000000000000000000000000003C
:1004C00000000000000000C0E070181898D8D8D0D4
:1004D000909030F0F020607078FCECA4B4B4949666
:1004E000D6C6464444C4C4848C8C8C8888C8D8D86A
:1004F00098909090909090909090901070F0F88CD0
:100500008E0602060E3870C0E0F0F8F8F8D8D0D0A9
:10051000B0F0E0C00000000000000000000000009B
:1005200000000000000000000000000000000000CB
:1005300000000000000000000000000000000000BB
:10054000C0E0E02030383FE7A060646E4A4B4F4F78
:100550004141FEF7F1D090929797959D8D8D898DB1
:100560008D1D1F1216DFDDE8B8B81818D0F030184E
:1005700018080808080848484949F9FD878686850B
:10058000BFFFE0C00E1F33313D0C040404050D0B0A
:100590000E03071EF8E0000000000000000000004D
:1005A000000000000000000000000000000000004B
:1005B000000000000000000000000000000000003B
:1005C00007070D0D19F9DD0F0B09097DFDFDFDFD77
:1005D000FD2505050505058787C6C6C2C2C3434379
:1005E0004363F3F1B0ACEC7E773333133F3F3063BA
:1005F00047404040405050505050EFFF3C3C0C0CA6
:10060000848E9FF3F06000000000000000000000F6
:100610000080C0E0781F0000000000000000000023
:1006200000000000000000000000000000000000CA
:1006300000000000000000000000000000000000BA
:100640000000000000000307060C0C0D0707070759
:1006500007070E0E0E1B3B313130180C1F1F3F3F9A
:100660002B2F3F3D35252726262232323212121AF1
:100670001A1A0B0B0B0B09090909090D0D3D7F7F98
:10068000C3818180E07C1C181808181C3C36363267
:10069000331B1F06000000000000000000000000E7
:1006A000000000000000000000000000000000004A
:1006B000000000000000000000000000000000003A
:1006C000000000000000000000000000000000002A
:1006D000000000000000000000000000000000001A
:1006E000000000000000000000000000000000000A
:1006F00000000000000000000000000000000000FA
:1007000000000001010000000000000000000000E7
:1007100000000000000000000000000000000000D9
:1007200000000000000000000000000000000000C9
:1007300000000000000000000000000000000000B9
:1007400000000000000000000000000000000000A9
:100750000000000000000000000000000000000099
:100760000000000000000000000000000000000089
:100770000000000000000000000000000000000079
:100780000000000000000000000000000000000069
:100790000000000000000000000000000000000059
:1007A0000000000000000000000000000000000049
:1007B0000000000000000000000000000000000039
:1007C0000000000000000000000000000000000029
:1007D0000000000000000000000000000000000019
:1007E0000000000000000000000000000000000009
:1007F00000000000000000000000000000000000F9
:1008000000000000000000000000000000000000E8
:1008100000000000000000000000000000000000D8
:1008200000000000000000000000000000000000C8
:1008300000000000000000000000000000000000B8
:1008400000000000000000000000000000000000A8
:100850000000000000000000000000000000000098
:100860000000000000000000000000000000000088
:100870000000000000000000000000000000000078
:100880000000000000000000000000000000000068
:100890000000000000000000000000000000000058
:1008A00000000000000000000000000014001A001A
:1008B0000800150017001C0018000C00120013009F
:1008C00004001600070009000A000B000D000E00CE
:1008D0000F002A001D221B00060019000500110050
:1008E0001000360037003832E000E2002C282B419F
:1008F0002842290000000000000000002D022D0009
:100900002E022E0033023500BC00AE00BB004C00AE
:100910002F02260227023002310229005000520025
:1009200051004F002F2234003402300033003502D2
:10093000AA00A800A9003132010001000100010055
:100940000100010000000000000000001E021F0264
:1009500020022102220223022402250239002A0059
:100960001E001F002000210022002300240025007B
:1009700026002700E10000000000000023520000D4
:10098000000036003700383201000100010001008C
:100990000100010000000000000000000000000055
:1009A0000000000000000000000000000000000047
:1009B0003A003B003C003D003E003F00400041004B
:1009C00042004300440000000000007C01000000E1
:1009D00000000000000045000100010001000100CE
:1009E00001000100000000000000000000AE00AFA8
:1009F00000DA0281FFD9F1DB20A4A62EAF00A0C04F
:100A0000D30000A1C8D30000AED580A81F408D142C
:100A1000200000000000000000002A2B2800000039
:100A2000000000000000000000000000002900009D
:100A300000002C1E3420212224342627252E362D7A
:100A40003738271E1F202122232425263333362E14
:100A500037381F0405060708090A0B0C0D0E0F1086
:100A60001112131415161718191A1B1C1D2F3130CB
:100A7000232D350405060708090A0B0C0D0E0F106F
:100A80001112131415161718191A1B1C1D2F3130AB
:100A9000354C0000000000000000000000000000D5
:100AA0000000000000000000000000000000000046
:100AB0000000000000007E0F00D4FFFFFFC7000011
:100AC00000780A0364006200330036000000060369
:100AD0004B00590000000403090409025B000301F4
:100AE00000A0FA090400000103010100092111011D
:100AF00000012244000705810308000109040100E8
:100B00000203000000092111010001222200070553
:100B100082032000010705030320000109040200ED
:100B2000010300000009211101000122B6000705A0
:100B300084032000011201000200000008594B73D9
:100B4000DA0001010200010660FF0961A1010962EA
:100B5000150026FF009520750881020963150026FF
:100B6000FF00952075089102C005010902A10185C9
:100B7000020901A10005091901290815002501959F
:100B800008750181020501093009311581257F951C
:100B9000027508810609381581257F950175088140
:100BA00006050C0A38021581257F95017508810616
:100BB000C0C005010980A101850319012AB70015EC
:100BC0000126B700950175108100C0050C0901A12F
:100BD00001850419012AA002150126A002950175BC
:100BE000108100C005010906A1018506050719E06D
:100BF00029E71500250195087501810205071900EF
:100C000029EF1500250195F07501810205081901EC
:100C10002905950575019102950175039101C0059E
:100C2000010906A101050719E029E715002501952D
:100C300008750181029501750881010507190029D0
:100C4000FF150026FF0095067508810005081901AB
:100C5000290515002501950575019102950175037A
:100C60009101C00011241FBECFEFDAE0DEBFCDBF7F
:100C700004B603FE18C08091F7049091F804A09187
:100C8000F904B091FA048730904BA740B04B59F467
:100C90001092F7041092F8041092F9041092FA04DA
:100CA000E0E0F8E3099511E0A0E0B1E0EAE1FCE55D
:100CB00002C005900D92AA3BB107D9F724E0AAEB38
:100CC000B1E001C01D92A73FB207E1F70E94E7150E
:100CD0000C94A62D0C940000A8E0B0E0E2E7F6E04A
:100CE0000C94172D8091210190912201A091230154
:100CF000B09124018D839E83AF83B88780912501B5
:100D000090912601A0912701B091280189839A83AF
:100D1000AB83BC838091BD019091BE010E94DC2316
:100D20008E34914008F10E94B323A0E0B0E080939C
:100D3000BD019093BE01A093BF01B093C00180910B
:100D4000BC018F5F81708093BC0190E0880F991F78
:100D5000E1E0F0E0EC0FFD1FE80FF91F6081718109
:100D6000848195810E94B51680E02896E2E00C947B
:100D7000332D982F962B9430A8F44A3098F4E42F12
:100D8000F0E09AE0699FE00DF11D112498E2899F3F
:100D9000E00DF11D1124EE0FFF1FE455F74F859173
:100DA0009491089581E090E0089581E008950E9473
:100DB000D506089581E008950E94D50608950E9401
:100DC000DC06089508950E94E2060895A6E0B0E0CA
:100DD000ECEEF6E00C94162D49835A839E833091F5
:100DE000C60189819A8131111AC03E81332399F05D
:100DF000222389F00E94660C182F682F89819A811E
:100E00000E94420C69817A81812F0E94921326965A
:100E1000E3E00C94322D0E94540C182FF3CF0E9463
:100E2000660C69817A81F1CFFC01262F40815181C6
:100E300062817381848195810E94E6060895CF9333
:100E4000DF93D82FC92F61E00E9414076D2F7C2FEC
:100E50000E94D706DF91CF910895CF93DF93D82FCB
:100E6000C92F60E00E9414076D2F7C2F0E94E306BB
:100E7000DF91CF91089581E008950E943B07089586
:100E8000CF93C82F0E94360B8C2F0E943D072FEF67
:100E900084E39CE0215080409040E1F700C00000D6
:100EA000CF91089581E00E9440070E940F24089589
:100EB00080E00E9440070E94332408950F931F93FF
:100EC000CF93DF938C0161E00E941407EC01B8011D
:100ED0000E941220882309F442C0B801CE010E946A
:100EE000DF068823E1F1B801CE010E94201F88238C
:100EF000B1F1B801CE010E94451A882381F1B801F1
:100F0000CE010E941A1A882351F1B801CE010E9425
:100F1000611F882321F1F8018581882381F0CA357A
:100F2000FCE7DF0739F178F4C130ECE7DE07F9F0D0
:100F3000C330FCE7DF07C9F0C115DC4771F0C80119
:100F40000E94DA060DC0CB35ECE7DE07B1F0CC35F8
:100F5000DC47A9F70E94B810F2CF0E94520780E048
:100F6000DF91CF911F910F9108950E94CA100E94A6
:100F70005807F5CF0E94C210E2CF0E94C610DFCF03
:100F80000E942F230E94E2070E940E1808950E94DB
:100F9000E6070E943423089581E008950895CF93D1
:100FA000DF93D82F0E94CC07C82F882319F08D2FEC
:100FB0000E94CE078C2FDF91CF91089508950E9453
:100FC000CF07089580E00E94DF0708950E946B21FB
:100FD0000E94DF070895CF930E946B21C82F809154
:100FE000C1018C1779F0C093C1010E94BF236093A7
:100FF000C2017093C3018093C4019093C5018C2FEB
:101000000E94DF07CF910895ADE0B0E0EAE0F8E09C
:101010000C94172D488759876A877B878C879D8713
:1010200091110E94C30F1F8286E0FE013896DE01F7
:10103000119601900D928A95E1F78D8181110DC075
:1010400029813A814B815C816D817E818F810E94F3
:10105000090F2D96E2E00C94332DCE0101960E94EB
:101060001F078111EDCFF5CFFC018481813021F480
:10107000808191810E948F0C0895662329F00E943F
:10108000B31B0E94741C08950E94FC1BFACFCF93DF
:10109000C82F882399F08CEF8C0F813A88F48C2F1D
:1010A0000E940E22882329F08C2F0E94B3220E94D6
:1010B0005B108C2F0E949C220E945B10CF910895A0
:1010C00080E28C0F883048F4C77081E001C0880F3F
:1010D000CA95EAF70E94A40FEFCF8BE58C0F8330FF
:1010E00038F42C2F2452330BC9010E94A121E6CFE2
:1010F000E8E5EC0FEB3150F4F0E0EE0FFF1FE75D99
:10110000FE4F808191810E94C721D8CF83E38C0F4D
:101110008331A0F661E08C2F0E943D08CFCF882359
:1011200081F19CEF980F913A28F40E94B3220E941B
:101130005B10089590E2980F983050F4877091E01A
:1011400001C0990F8A95EAF7892F0E94AA0FEFCF65
:101150009BE5980F933028F480E090E00E94A12155
:10116000089598E5980F9B3128F480E090E00E9464
:10117000C721089593E3980F933118F460E00E941B
:101180003D0808951F93CF93DF93182FEB010E9422
:101190004708209739F4812F0E948F08DF91CF9163
:1011A0001F9108958FE99FE00197F1F700C00000BB
:1011B0002197EFCF60E070E0893311F460E570E0D3
:1011C0000E94C2080895882321F00E94A40F0E9463
:1011D0005B100895882321F00E94AA0F0E945B10E3
:1011E0000895A0E0B0E0E7EFF8E00C94112D6C0159
:1011F000D62FC72FFC011581068102950F700E9422
:10120000990FE82E8823F9F0E12E1123E1F08C2FBD
:10121000807F803461F080E28D0F8830F0F08C2F79
:10122000807E803221F4D230C0F00023B1F0809172
:10123000CF0282FF12C082E00E948B100E94990FA1
:1012400091E0E82EE926EC2FE295EF70C03CB0F576
:10125000F0E0E855F24D0C94FA2CE12CF4CF0C2F71
:101260000F70C03110F00295007F112399F0002318
:1012700059F080E28D0F883010F0D11107C0802F17
:101280000E94A40F0E945B108D2F51C0802F0E94DE
:10129000B50FF8CF8D2F0E948F08002379F080E2E0
:1012A0008D0F883010F0D11104C0802F0E94AA0F3A
:1012B00003C0802F0E94BB0F0E945B10EE2089F0BC
:1012C0000E94950F80FD0DC0F60115820E948F0FC0
:1012D0000E94B00BC6010E94FD0A0E948F0F0E945F
:1012E000BC0BCDB7DEB7E8E00C942D2DFC2FFF70C2
:1012F000FF2EC07FC03219F0F29480EFF822DD2378
:1013000041F0D130D1F1112309F444C00023F1F0B0
:10131000BBCF8091CF0282FD15C0112359F0FF2071
:1013200029F08F2D0E94A40F0E945B1080E00E9484
:101330004708C4CF80E00E948F08FF2009F4BECF89
:101340008F2DB4CF112369F0011104C08F2D0E949D
:10135000E308B4CF013009F0B1CF8F2D0E94DB0F2D
:10136000ADCF0111ABCF8F2D0E94EA088F2D0E94C7
:10137000E70F8F2D0E94CA0FA1CF112321F0063055
:1013800008F09CCFE3CF053008F098CF8F2D0E9456
:10139000EA0894CF0023D1F3D93349F42FEF87EE35
:1013A00093E0215080409040E1F700C000008D2F75
:1013B0000E948F0883CF8C2F869586958370882313
:1013C00069F0813009F07ACF8D2F9C2F9370111125
:1013D00002C080E090E00E94C72170CF8D2F9C2F2B
:1013E0009370111102C080E090E00E94A12166CFAD
:1013F000612F8D2F0E943D0861CF8C2F837081114A
:1014000034C0111124C04D2F429546954770440FAA
:10141000440F8D2F8F70042E01C0880F0A94EAF7B5
:10142000D071DD2341F02FE030E001C0220F4A955A
:10143000EAF7D22FD095C695C695C3708D2BC230D2
:1014400071F0C33079F0C13039F00E948C0B0E94EA
:101450006B210E94DF0732CF0E94860BF8CF0E94DB
:10146000920BF5CF0E94830BF2CF112339F1C0FF0D
:10147000EECF4D2F429546954770440F440F8D2F68
:101480008F70042E01C0880F0A94EAF7D071DD2313
:1014900041F02FE030E001C0220F4A95EAF7D22F49
:1014A000D095C695C695C3708D2BC23069F0C330F8
:1014B00071F0C13031F00E94DE0BC9CF823038F2BA
:1014C000D8CF0E94D80BC3CF0E94E40BC0CF0E949C
:1014D0009E0BBDCFCF70112339F08C2F0E94B00B23
:1014E0008D2F0E94E308B3CF8D2F0E94EA088C2F26
:1014F0000E94BC0BACCFD23F31F170F4D03FB9F0B9
:10150000D13FB1F1112309F44EC0002309F448C0C2
:101510008D2F0E9447089BCFD33FE1F0D43F21F1AC
:101520001111F3CF01114DC08C2F8F71E1CF112319
:1015300041F0053008F08BCF8C2F8F710E94CC0BBF
:1015400086CF0530F7CF8C2F8F711111D1CF0E942C
:10155000B00B7DCF112329F08C2F8F710E94A70B28
:1015600076CF0E94A30B73CF8091CF0282FD06C07D
:101570008C2F8F71112309F4BBCFE9CF112331F0E8
:1015800063E08C2F8F710E946D1061CF81E00E940B
:101590008B10023008F45BCF82E00E948B1057CF93
:1015A0008C2F8F71D4CF002309F4BECFD93349F4E7
:1015B000EFEFF7EE23E0E150F0402040E1F700C00C
:1015C00000008D2F0E948F0842CF0F931F93CF935F
:1015D000DF93EC01688179818D810E949C0C8C01E4
:1015E0000E94EA0B0E94820BB801CE010E94F10812
:1015F000DF91CF911F910F910895CF93DF93EC016D
:101600008C81882399F0CE010E945E07811111C060
:101610000E94990F882351F08D81882339F08091A1
:10162000CF0282FF03C082E00E948B10DF91CF9136
:101630000895CE010E94E50ACE010E942D07F6CF43
:1016400080E090E00E94A12180E090E00E94C7210C
:101650000E94C30F0E945B100E94911C0E94741C88
:1016600008950E94CA220E94200B08950E94B20F82
:101670000E94310B0895282F92959F70963091F01B
:1016800060F4925F9F70923030F481E0203F79F0F7
:1016900030F4283E30F080E008959A5FF3CF243F85
:1016A000D1F7089581E0283EE0F3213FF9CF089576
:1016B000FC018481882339F0808191810E948F0C04
:1016C0000E943B0B089580E00895A6E0B0E0EBE6B1
:1016D000FBE00C94172D2696E2E00C94332DA7E046
:1016E000B0E0E5E7FBE00C94172D2796E2E00C94C0
:1016F000332D08950E94790B08950E947A0B8093F0
:10170000D701089508950E947D0B08959091D70107
:10171000892B0E947D0B08959091D70189230E9407
:101720007D0B08959091D70189270E947D0B089524
:101730000E94790B08950E94980B08950E949B0BBC
:101740008093D601089580E00E949E0B089591E059
:1017500001C0990F8A95EAF7892F0E949E0B089580
:1017600021E030E001C0220F8A95EAF78091D6018E
:10177000822B0E949E0B089521E030E0A90102C057
:10178000440F551F8A95E2F7CA0180959091D601C2
:1017900089230E949E0B089521E030E001C0220FB2
:1017A0008A95EAF78091D60182270E949E0B0895C0
:1017B0009091D601892B0E949E0B08959091D6019D
:1017C00089230E949E0B08959091D60189270E943B
:1017D0009E0B089508959B01677091E001C0990FD9
:1017E0006A95EAF763E0369527956A95E1F7B901BE
:1017F000660F771F260F371FFA01E20FF31F40E035
:1018000050E0682F70E08191DF0111979B01042E59
:1018100002C0369527950A94E2F721702195282772
:10182000292328272C934F5F5F4F4330510559F7E9
:1018300008959C01A82FA77083E0369527958A9577
:10184000E1F7C901880F991F820F931FFB01E80F71
:10185000F91F40E050E080E0219130E00A2E02C004
:10186000369527950A94E2F721703327042E01C09C
:10187000220F0A94EAF7822B4F5F5F4F43305105E6
:1018800059F70895282F862F943068F42A3058F499
:10189000622F70E02AE0929F600D711D112447ECC9
:1018A00051E00E94EB0B0895292F943068F48A30A0
:1018B00058F490E067EC71E03AE0239F800D911DB1
:1018C00011240E94190C089580E00895A0E0B0E072
:1018D000ECE6FCE00C94122D7C010091D601809185
:1018E000D701082BC3E0D0E010E0C8010C2E02C0E5
:1018F000959587950A94E2F780FD09C02197A8F78E
:10190000D12C8D2DCDB7DEB7E7E00C942E2DDC2E3B
:10191000B7018C2F0E949E13019781F3F2CFCF93D2
:10192000DF93D82FC92F0E94660C6D2F7C2F0E9449
:101930009E13DF91CF9108951F93CF93DF93162FBE
:10194000D72F9091C601992341F0862F972F0E949F
:101950008F0CDF91CF911F910895882381F0862FFE
:10196000972F0E94660CC82F682F812F9D2F0E94F1
:10197000420C612F7D2F8C2F0E949E13EACF862F61
:10198000972F0E94540CC82FF4CFE1E0F0E0DF0164
:1019900002C0AA0FBB1F6A95E2F7BD01DF0102C0BA
:1019A000AA0FBB1F4A95E2F76A2B01C0EE0F2A95DA
:1019B000EAF7962F9823961302C08E2B0895E09590
:1019C0008E230895242F462F682F8091D6010E94E0
:1019D000C50C0E949E0B08950F931F93CF93E09127
:1019E000D801C7E08091D9018E1304C0CF911F9117
:1019F0000F9108950E2F10E0CE9FF0011124E652B2
:101A0000FE4F2081318142815381648175818681BD
:101A10000E946F0BF8013196E770E4CF209112021B
:101A200030911302409114025091150260911602F8
:101A300070911702809118020E946F0B0895809197
:101A40001802803178F480911702882359F0E091D0
:101A5000D8012091D901309113024091120257E030
:101A60002E1301C008956E2F70E05E9FF0011124C7
:101A7000DF01A652BE4F14968C911497882361F112
:101A800011968C911197831327C08C91841324C0D5
:101A900015968C91159781111FC012968D919C916E
:101AA000A0911402B09115028A1B9B0B883C9105F2
:101AB00098F4809118028F70806180931802E05230
:101AC000FE4F80818F708061808382E192E00E946E
:101AD000FD0A0E94EC0C0895FB013196E770C0CF1F
:101AE000E091D8019091D90127E0E91302C080E08C
:101AF0000895AE2FB0E02E9FF0011124E652FE4F64
:101B00003181361306C03081381303C03581341358
:101B100004C0FD013196E770E8CF81E008958F920F
:101B20009F92AF92BF92DF92EF92FF920F931F931B
:101B3000CF93DF93CDB7DEB72D970FB6F894DEBF06
:101B40000FBECDBF8C0186E0F801DE011896019032
:101B50000D928A95E1F7F801E080F580A280B380CC
:101B6000848192E1892E92E0992E90911602911132
:101B70001BC0882309F4FCC0FF2009F43DC1C80143
:101B80000E94580B882309F437C187E0F801D4017B
:101B900001900D928A95E1F7C4010E9434080E94D9
:101BA0001F0D0E940E0DE4C0D09017022091140268
:101BB00030911502A501421B530BDD2009F4DBC057
:101BC000483C510508F0A6C0882309F4D1C0909183
:101BD0001302918080911802803108F06BC0991235
:101BE00028C0909112029E1124C0F1105DC08F7028
:101BF0008061809318020E940E0D82E192E00E94A3
:101C0000FD0A80911802F8018683F12C8F2D2D9604
:101C10000FB6F894DEBF0FBECDBFDF91CF911F91FD
:101C20000F91FF90EF90DF90BF90AF909F908F90BB
:101C30000895F11039C040E0692D8E2D0E94700D7D
:101C400040E0692D8E2D0E94700DF82E8111DDCFA0
:101C5000888599850E948F0C292F22952F709034AA
:101C600050F49F70223080F0992399F0F80196810A
:101C7000903178F4CBCF2A5F2F70223078F0C801F2
:101C80000E94FD0AFD2CC2CF992319F0882309F484
:101C9000BDCF805E883008F4B9CFF1CF803F08F423
:101CA000B5CF815F8230F7CF809118028160809339
:101CB0001802ABCF991207C0909112029E1103C077
:101CC000FF2009F479C0C8010E94580B882309F449
:101CD00093C0FF2009F490C080911802803288F0F0
:101CE00020911202309113023A832983BC82AB8285
:101CF000909116029D831E828F83CE0101960E94D1
:101D0000FD0A87E0F801A2E1B2E001900D928A9508
:101D1000E1F745CF909118029031A0F4488559859C
:101D20006A857B858C859D850E94650B82E192E0AA
:101D30000E94FD0A87E0F40111928A95E9F70E945A
:101D40000E0D63CF8823A1F0209113028181281307
:101D5000BACF809112028E11B6CFF110B4CF968314
:101D6000C8010E94FD0A87E0F40111928A95E9F703
:101D7000FF24F3944BCF483C510508F041C0882321
:101D8000B9F3FF20C9F190911302818198132AC001
:101D9000809112028E1126C08091180280FD19C018
:101DA0008031B8F08683807F803F39F08681982F1C
:101DB000907F905F8F70892B8683C8010E94FD0AF7
:101DC00087E0F801A2E1B2E001900D928A95E1F777
:101DD000E8CE87E0F801A2E1B2E001900D928A9589
:101DE000E1F7C6CFC8010E94580B81118ACF8091BC
:101DF0001802816080931802C8010E94FD0AB8CFC2
:101E0000488559856A857B858C859D850E94650BF3
:101E100091CFAEE0B0E0EFE0FFE00C94162D288704
:101E200039874A875B876C877D878E87CE010896C6
:101E30000E948F0D8823B1F06C85662341F02885C0
:101E400039854A855B857D858E850E946F0B17E0FD
:101E50008091D8019091D90189133EC02E96E3E07C
:101E60000C94322D87E0FE013896DE011196019028
:101E70000D928A95E1F72091D9014091D8018C8586
:101E8000882329F330E0C90101968770992750E033
:101E90008417950799F097E0929FD001939FB00D1A
:101EA0001124A652BE4FFE01319601900D929A95D3
:101EB000E1F78093D9010E94EC0CC9CF0E94360B48
:101EC0001092D9011092D80187E0E2E1F2E0DF013F
:101ED0001D928A95E9F7BBCF189FC0011124865245
:101EE0009E4F0E948F0D882309F4B8CFE091D8014E
:101EF0001E9FF0011124E652FE4F20813181428164
:101F000053816481758186810E946F0B8091D80115
:101F100090E00196877099278093D80199CF80919E
:101F20004102869586958695089580914102877035
:101F3000089590914102977081E0911101C080E075
:101F4000089580916D02089590916D02982B909361
:101F50006D020895982F909580916D02892380934A
:101F60006D02089510926D02089590916C02982B65
:101F700090936C020895982F909580916C0289231C
:101F800080936C02089510926C02089508950E9447
:101F9000C60F089590914202292F2823222331F061
:101FA00080958923809342020E94C70F0895089567
:101FB0000E94D70F089590914302292F28232817B4
:101FC00029F0982B909343020E94D80F0895909186
:101FD0004302292F2823222331F0809589238093DF
:101FE00043020E94D80F089580914302882329F06C
:101FF0001092430280E00E94D80F0895CF93DF93A0
:10200000C0916D0280916C02C82BD0914302DD23F8
:1020100031F00E94ED2181110E94F40FCD2B8C2F05
:10202000DF91CF910895CF93DF93C0910201D091BA
:1020300003010E94FE0F8883C0910201D091030129
:1020400048E050E069E372E0CE010E943E2D892B0A
:1020500059F088E0FE01A9E3B2E001900D928A9563
:10206000E1F7CE010E947821DF91CF910895CF93BF
:10207000DF93C0910001D09101010E94FE0F89837E
:10208000C0910001D091010140E250E069E172E0AD
:10209000CE010E943E2D892B59F080E2FE01A9E17C
:1020A000B2E001900D928A95E1F7CE010E94832162
:1020B000DF91CF91089580912001882339F080919C
:1020C000CE0287FF03C00E94371008950E941310AC
:1020D000089508950E94691008959091CF0292FF8B
:1020E00011C098E0899F90011124622B60934102F6
:1020F0000E94B00B809141028695869586950E943C
:102100006A1008950E94B00B08951092410280E079
:102110000E946A10089590914102809589238093CE
:102120004102282F277021110DC0891759F0909175
:10213000CF0292FF07C08695869586950E94BC0BBC
:102140000E94851008959091CF0292FB222720F9DA
:10215000281769F080FB92F99093CF028091CE020C
:102160009091CF020E94EC1082E00E948B100895A3
:102170008091CF0282FB882780F991E089270E9415
:10218000A310089581E00E94A310089580E00E94AA
:10219000A31008956FEF7FEF80E090E00E94902DF4
:1021A000089580E090E00E945C2D853E9E4F19F4DA
:1021B0000E949C1F089580E0089582E090E00E94B4
:1021C000542D089583E090E00E94542D089584E0FA
:1021D00090E00E945C2D0895BC0184E090E00E9494
:1021E000902D0895AB01BC018FE090E00E94842DFA
:1021F0000895AB01BC0183E190E00E94842D089515
:1022000060E070E0CB010E94F910089560E070E09A
:10221000CB010E94F2100E9400110895A8E0B0E0E6
:10222000E4E1F1E10C94172D65EE7EEF80E090E0A3
:102230000E94902D60E082E090E00E94722D81E08B
:102240008093D70161E083E090E00E94722D60E00E
:1022500074E184E090E00E94902D60E086E090E0E0
:102260000E94722D60E087E090E00E94722D40E0B5
:1022700050E0BA0188E090E00E94842D60E083E2A3
:1022800090E00E94722D60E08CE090E00E94722D40
:1022900060E08DE090E00E94722D19821A821B820C
:1022A0001C821D821E821F82188648E050E067E172
:1022B00070E0CE0101960E94622D40E050E0BA012C
:1022C0008FE190E00E94842D80E00E94B51F0E9463
:1022D000F41F0E9406112896E2E00C94332D0E9410
:1022E0000E110895682F8EE090E00E94722D0895DF
:1022F000A6E0B0E0EEE7F1E10C94152D0E94B323C7
:102300008C0180916E0290916F028017910779F095
:1023100019821A820E94B323BC0149815A8180E04C
:1023200090E00E94040810936F0200936E022696BC
:10233000E4E00C94312D0E94BF2360937C027093E3
:102340007D0280937E0290937F0260937802709367
:10235000790280937A0290937B02089508950895FC
:102360000E94AE11089508950E94B311089586E960
:1023700094E10E94FE150E94AF110E94B0110895D1
:1023800081E008950E94C01108950E94C01108952F
:10239000089508950E94C8110E94C91108950E94CD
:1023A000D110811102C00E946F110E94DD10809334
:1023B00080020E94E7109093CF028093CE020E9489
:1023C00084180E94E2100E94830B8091D6010E9423
:1023D0009B0B08950E94AA230E9404200E944F157F
:1023E0000E94CF110E94DE0780E00E944B160E94DF
:1023F000B4110895A6E0B0E0E0E0F2E10C940B2DFA
:102400000E94C21181110CC00E9478110E942C18E8
:102410000E94B21C0E94EB072696EEE00C94272D3A
:102420000E94651520E7822E22E0922E640110E0C2
:10243000F601E190F1906F01812F0E94A0141F5FBF
:10244000143009F451C0E816F90691F38091800226
:1024500081FD0E94A9140E94C511782EF12C6624DA
:1024600063948F2D0E94A0148C01F401A190B1906F
:102470004F018A159B0569F1A826B926E12CCC24C9
:10248000C394D12CC6018A219B21892BC1F07720CE
:10249000B1F0E982FA820E94B3239C838B836D8220
:1024A00021E0C60180239123892B09F420E0498192
:1024B0005A816B817C818D81922F0E940408E39464
:1024C000CC0CDD1CFAE0EF12DDCFF4013297118362
:1024D0000083F39484E0F812C4CF0E949B110E9401
:1024E0002C180E94F71694CFE816F90609F0AECF23
:1024F0008BCF1F93CF93DF930E94A313EC01811521
:1025000022E5920708F053C0811540E5940708F0D2
:10251000DDC0803E9105F8F48D3C910508F0AEC019
:10252000883A910580F4853A910508F099C0813088
:10253000910521F00497813A910550F4CE01DF9185
:10254000CF911F910895885A91094B9708F48BC039
:10255000C0E0D0E0F3CF811550E49507F8F4C11541
:1025600080E2D80708F0CBC0C83ED10538F3CE01D1
:102570009A9581159F4160F78D2F0E944714182F5F
:10258000CE0199270E94A313212F30E0322F22275A
:10259000E901CC27DF71C82BD92BD0CF99270E9416
:1025A000A313CC27DF70C82BD92BD06AC7CF8038B4
:1025B00042E59407C8F5803652E5950708F067C0F4
:1025C000C03482E5D807B0F08C2F86958695877049
:1025D00020E2829FC0011124C37021E030E0A901F4
:1025E00002C0440F551FCA95E2F7EA01C82BD92B48
:1025F000DC68A4CFC03252E5D50708F041C08C2F6B
:102600008695869520E2829FC0011124C37021E047
:1026100030E0A90102C0440F551FCA95E2F7EA0154
:10262000C82BD92BDD688ACF803C52E5950760F432
:102630008F71C03AD24508F03FC090E0982F8827AC
:10264000EC01C46FD06A7ACF805C9245809708F025
:102650007FCFDC2FCC27CC27DF71C06FD06A6ECF45
:10266000A497D0646BCFC85AD0E0CC0FDD1FC15AFD
:10267000DE4F0990D881C02DD46460CFD0655ECF85
:10268000CF71D0E0DC2FCC27C16FD06A57CF8695B1
:102690008695877020E2829FC0011124C37021E0DB
:1026A00030E0A90102C0440F551FCA95E2F7EA01C4
:1026B000C82BD92BDA6842CF0E944714C82FD0E02C
:1026C000DC2FCC27CC27DF71D06238CF8F710E94EE
:1026D000471465E0D695C7956A95E1F7CF70D0E0CD
:1026E000DC2FCC27282F30E084FF05C054E0220FD8
:1026F000331F5A95E1F7C22BD32BD0691FCF8D2FF3
:102700008F710E944714182FCE0199270E94A3139E
:10271000212F30E0322F222722273F71282B392BFF
:10272000E901D2CF462F672F743028F44A3018F4CD
:102730000E943819089580E090E008950E94921355
:102740000E9479120895803E9105D1F1C8F4813339
:10275000910509F47FC048F48932910509F46FC0EE
:102760008A32910509F47DC0089589339105E1F01D
:1027700082389105C9F08533910509F45BC008954D
:10278000843E9105D1F148F4823E910531F1833EBA
:10279000910541F181EE90E00895863E9105C1F1E9
:1027A000873E9105E1F108952091CE022370211119
:1027B00065C02091CF0223FF14C089E290E0089504
:1027C0002091CE0220FD43C03091CF0230FF09C0DE
:1027D00024FF4EC080E090E008952091CE0222FDBB
:1027E000F7CF08952091CE0222FD45C03091CF024F
:1027F00030FD44C024FFF5CFEDCF2091CF0221FF63
:10280000F0CF8091CE0284FDE5CF87EE90E0089571
:102810002091CE0223FFE5CF24FDDCCFF6CF20911F
:10282000CE0223FD2EC03091CF0231FFE3CF84EEE4
:1028300090E008952091CE0225FFD3CFBECF209106
:10284000CE0225FD21C02091CF0223FFCACF89E30C
:1028500090E008952091CE0226FFC3CF8AE290E057
:1028600008952091CE0226FFBCCF81E390E0089529
:1028700083EE90E0089582EE90E0089580EE90E07F
:10288000089586EE90E0089585E390E0AACF9091B8
:10289000CE0292FF10C041E0282F2471243009F0AD
:1028A00040E031E0282F2871283009F030E043174C
:1028B00011F02CE0822793FF10C041E0282F2471F3
:1028C000243109F040E031E0282F2871283109F047
:1028D00030E0431711F02CE082273091CF0230FF17
:1028E00010C051E0282F2171213009F050E041E063
:1028F000282F2871283009F040E0541711F029E002
:10290000822731FF10C041E0282F2171213109F0C9
:1029100040E031E0282F2871283109F030E04317DA
:1029200011F029E0822794FD877E089580E00895C4
:1029300008950E949814089508950E949C14089583
:10294000E82FF0E0EE0FFF1FE852FD4F80819181EC
:102950000895089580EA8A95F1F7089500C00895D2
:102960000E94AA140895F894E82FE295EF70F0E021
:1029700041A18F7021E030E0B90102C0660F771FDE
:102980008A95E2F7CB01962F9095942391A392A17B
:10299000892B82A378940895CF93DF9381E30E94DB
:1029A000B31483E30E94B31482E30E94B31486E35A
:1029B0000E94B314C5E9D1E089918F3F11F00E94C4
:1029C000B31481E0CF39D807B9F7DF91CF910895DB
:1029D000A0E0B0E0EEEEF4E10C94102DEC01B62E88
:1029E000062F10E0C80181569E4F7C01FC018081BA
:1029F0008F3F09F44FC0F894E82FE295EF70F0E0B4
:102A000091A18F7021E030E001C0220F8A95EAF792
:102A1000892F822B81A382A12095282322A3789439
:102A20000E94AE14E5E9F1E041E050E0C12CD12C68
:102A300021912F3F89F0A22FA295AF70A05EB0E048
:102A40008C9190E02F7002C0959587952A95E2F7BA
:102A500081709A01882311F020E030E0C22AD32A45
:102A6000440F551F81E0EF39F80711F7F701808116
:102A70008F3F11F00E94B31461E0C114D10409F436
:102A800060E08B2D0E94B014000F111FC00FD11FEA
:102A9000D982C882CDB7DEB7E9E00C942C2D0E9414
:102AA000CC1488E0E8EDF2E0DF01982F1D929A95B2
:102AB000E9F7E0EDF2E0DF011D928A95E9F784E0A5
:102AC0000E94A2150E9499140895A8E0B0E0EBE6D8
:102AD000F5E10C94142DFE01319688E0DF011D9282
:102AE0008A95E9F710E0FE2E0F2F612F8F2D902F82
:102AF0000E94E8141F5F1430C1F748E050E06F2DCA
:102B0000702F80ED92E00E943E2D21E0892B81F410
:102B100020E044E068ED72E080ED92E00E94A315B1
:102B2000182F0E949D14812F2896E5E00C94302DDB
:102B300088E0EF2DF02FA0EDB2E001900D928A9584
:102B4000E1F7E7CF0895A0E0B0E0E9EAF5E10C9401
:102B5000112DD82EE92EF62ED72F042FC22F222387
:102B600079F081E0809383020E94B32390938202E4
:102B70008093810280E0CDB7DEB7E8E00C942D2D84
:102B8000C0908302CC20B1F38091810290918202A7
:102B90000E94DC23059770F310E0000F111FA801BD
:102BA0006D2D7E2D8F2D9D2F0E943E2D892B41F066
:102BB000A8016D2D7E2D8F2D9D2F0E944B2DCC2D8C
:102BC000109283028C2FD7CF0E94FA1108950E9491
:102BD0004C230E9442270E94B7110E945C270E944A
:102BE000EA110E9469270E946E270E94E4150E9444
:102BF00088270E9410260E94CA11F5CF9093BB012E
:102C00008093BA010895AB0124E630E0BC0188E767
:102C10000E94C9249C0181E0232B09F080E00895E3
:102C2000AB0124E630E0BC0188E70E9414259C013A
:102C300081E0232B09F080E008950F931F93AC01EE
:102C40009B0104E610E060E488E70E9461259C0196
:102C500081E0232B09F080E01F910F9108950E94DD
:102C60009324089508950E9432160895E0EEF2E04C
:102C700080E092E0DF019C011D9221503040E1F79D
:102C8000F093E504E093E4048FEF9FEF9093AA02A2
:102C90008093A9020895A5E0B0E0E1E5F6E10C9487
:102CA000172D0E9432160E94331690E280FF90E8A2
:102CB0008093A5029093A4020E942F166BE070E00F
:102CC00087E09AE00E941016811106C01D828D8156
:102CD0002596E2E00C94332D8091A50265E070E02A
:102CE00081FD29C082E09AE00E941016882371F3CA
:102CF0006DE070E080EF99E00E9410168D838823CC
:102D000029F30E94BF23DC01CB01805A9541AF4FCC
:102D1000BF4F8093E0049093E104A093E204B0934A
:102D2000E3040E94361681E08093A8028093A702F4
:102D30001092A602CCCF8DEF99E0D6CF2091A402BD
:102D400036E0839FC0011124269F800D911D112420
:102D5000811522E0920714F080E090E080529D4FB0
:102D60009093E5048093E4040895CF93DF93B82F04
:102D7000A92F9B018091E4049091E504805E92402C
:102D8000AC01460F571F4130524020F020E032E0A6
:102D9000281B390B4091A9025091AA02EB2FFA2F60
:102DA000280F391FC1E0D0E08217930738F0509305
:102DB000AA024093A902DF91CF9108956491DC01AA
:102DC000A052BD4F7C91761779F06C93BC01A5E0C1
:102DD00076956795AA95E1F7DE0102C0AA0FBB1FA1
:102DE0006A95E2F74A2B5B2B01963196DDCFA4E082
:102DF000B0E0EDEFF6E10C94172D8091A80281115F
:102E000006C08091A7022496E2E00C94332D0E9424
:102E1000BF23DC01CB01805A9541AF4FBF4F809358
:102E2000E0049093E104A093E204B093E304809162
:102E3000A7028111E6CF62E070E08EEE99E00E9479
:102E400010168823F1F281E08093A702DACFA4E084
:102E5000B0E0EDE2F7E10C94072D8C838091A9029C
:102E60009091AA02892BE9F08091A8028823C9F0E9
:102E70008091A602811115C00E94F71610E01B82F6
:102E800044244394512C00E267E0F62E8091A9027D
:102E90009091AA02009729F0112351F0FC81F111C1
:102EA00007C02496E2E10C94232D2B812F5F2B8306
:102EB0003B81C32ED12C520102C0AA0CBB1C3A95F7
:102EC000E2F7950128233923232B79F38091A5027A
:102ED00080FD3DC096013695279536952795922F12
:102EE0008B818295880F80763FE1380F80930601B1
:102EF000209309013093070190930A0167E070E085
:102F000084E091E00E940316882359F2C60125E06F
:102F1000880F991F2A95E1F72091A50220FD20C076
:102F200060E270E080529D4F0E941D16882309F4D4
:102F3000B8CFA094B0948091A9029091AA028A215E
:102F40009B219093AA028093A9021F5F9FCF8B8140
:102F5000880F880F880F37E0380F20E093E0C6CF46
:102F6000A4E8B2E0E02F1D92EA95E9F727EA31E004
:102F70003A83298363EA71E0E981FA81A191FA83B6
:102F8000E983FB012191BF01280F392F311DA901D0
:102F900040525D4F1A01EA2FF0E0EC57FD4F20E060
:102FA00030E06F2C621A842C022E01C0880C0A9427
:102FB000EAF76101912CD601ED906D01E820462DD4
:102FC0004919477050E0BE2D042E01C0BB0F0A9472
:102FD000EAF77B2E5195419551094770552701C05D
:102FE000E6944A95EAF7EB2A4081E42AE08293943A
:102FF00048E09412E0CF2F5F3F4F319628303105E3
:1030000081F6ABEAB1E0E981FA81AE17BF0709F0BA
:10301000B3CF60E270E084E892E086CF8091A702AF
:103020009091A802911103C091E089270895882307
:1030300069F062E070E08CEE99E00E941016811158
:1030400003C08091A70208951092A7028091A70261
:10305000EBCF0E946C060895A4E0B0E0E2E3F8E153
:103060000C94172D8091A802882361F160E080E024
:103070000E949E160E94291880E00E9427178091C6
:10308000A7028823F9F00E94BF2369837A838B8388
:103090009C838091E0049091E104A091E204B091BE
:1030A000E30429813A814B815C81281B390B4A0B4F
:1030B0005B0BDA01C9018F3F9F4FAF4FBF4710F441
:1030C0000E940E182496E2E00C94332D0E94CA1040
:1030D000089580E00E94A014817008950E946515F3
:1030E0002FEF86E791E0215080409040E1F700C04B
:1030F00000000E9465150E946918882321F00E9433
:1031000066180E940F2408950E946E18089584E0A6
:10311000089550E0440F551F94E1699F400D511DE3
:10312000112490E5899F400D511D1124CA018896F4
:1031300008950F931F93CF93DF93982F962B94307E
:10314000B8F44A30A8F40E9489188C010E94542DCA
:10315000C82FD0E0DC2FCC27C80101960E94542D47
:103160009E01282BC901DF91CF911F910F910895E6
:1031700080E090E0F8CF0F931F93CF93DF93122F4F
:10318000032F982F962B943068F44A3058F40E94FD
:103190008918EC01602F0E94722D612FCE010196DB
:1031A0000E94722DDF91CF911F910F9108951F936F
:1031B000CF93DF93D0E0C0E011C0412F6C2F8D2F53
:1031C0000E94B9069C01412F6C2F8D2F0E94BB18C5
:1031D0001F5F1A3091F7CF5FC43011F010E0EDCFD0
:1031E000DF5FD43041F7DF91CF911F910895EF92C7
:1031F000FF920F931F93CF93DF938C01EA017A0123
:10320000E60EF71ECE15DF0529F4CDB7DEB7E6E0F2
:103210000C942F2D003481E0180740F4C8018896E3
:103220000E94542D89930F5F1F4FECCF80E0FACF9F
:10323000EF92FF920F931F93CF93DF938C01EA01DC
:103240007A01E60EF71ECE15DF0529F4CDB7DEB7FD
:10325000E6E00C942F2D003481E0180728F46881F3
:10326000C80188960E94722D21960F5F1F4FEBCFE9
:10327000982F962B943028F44A3018F40E9499180D
:10328000089580E090E0089580E1089588E992E053
:103290000895EF92FF920F931F93CF93DF938C01CA
:1032A000EA017A01E60EF71ECE15DF0529F4CDB747
:1032B000DEB7E6E00C942F2D083982E0180748F4B9
:1032C000C80188599E4F0E94542D89930F5F1F4F4C
:1032D000EBCF80E0FACFEF92FF920F931F93CF9343
:1032E000DF938C01EA017A01E60EF71ECE15DF05A9
:1032F00029F4CDB7DEB7E6E00C942F2D083982E033
:10330000180730F46881C80188599E4F0E94722DB9
:1033100021960F5F1F4FEACFCF93DF93C8E6D1E02E
:1033200060E0CE010E94722D2196C11584E0D8077D
:10333000B9F7DF91CF910895A8E0B0E0E2EAF9E1B2
:103340000C94112DF82E2FE0281708F46FC08FEF82
:1033500093E00E94542D811169C008E611E0F1103C
:1033600038C01A821982FE01339686E0DF011D9271
:103370008A95E9F76801BFEFCB1ADB0AC8010E9402
:10338000542D89831A82882309F450C08130D1F4E6
:10339000780122E0E20EF11CC6010E94542D8A83BE
:1033A000882309F443C09FEF980F9330F8F4680125
:1033B00083E0C80ED11CC7010E94542D8B83882343
:1033C000A9F11C8260E0CE0101960E94461E860192
:1033D000D1CF011584E0180749F1C8010E94542D8E
:1033E0000F5F1F4F8111F5CFFA94B9CF8430B9F434
:1033F00002E010E0C701AFEFEA1AFA0A0E94542D6A
:10340000E1E0F0E0EC0FFD1FE00FF11F8083882367
:1034100069F08C3731F4FE01E00FF11F1282670171
:10342000D1CF0F5F1F4F0730110521F72896E8E035
:103430000C942D2DCF93DF93EB0186319C4719F52A
:103440000E94A10F9D819923A1F08A7A91E08111B8
:1034500001C090E09093AB02882349F085E30E947D
:103460009C220E945B1080E0DF91CF91089589E259
:10347000F6CF8091AB02882321F085E30E94B3222E
:10348000F0CF89E2FBCF81E0EFCFCF93DF93EC0168
:10349000FB018581882309F4D2C09E013057233275
:1034A000310508F0B2C00E94E7109093CF028093DC
:1034B000CE02FE01E150F047E232F10520F4EC5477
:1034C000F24D0C94FA2C8091CE0281608093CE0252
:1034D00093C08091CF0288608093CF028DC080918D
:1034E000CE028260F3CF8091CE028460EFCF8091D4
:1034F000CE028860EBCF8091CF028160EDCF8091CA
:10350000CF028260E9CF8091CE028061DFCF8091CF
:10351000CE028062DBCF8091CE028064D7CF0E9442
:10352000360B8091CE028068D1CF8091CE028C6024
:10353000CDCF8091CF028360CFCF8091CE028E7F9E
:10354000C5CF8091CF02877FC7CF8091CE028D7F7C
:10355000BDCF8091CE028B7FB9CF8091CE02877F85
:10356000B5CF8091CF028E7FB7CF8091CF028D7F74
:10357000B3CF8091CE028F7EA9CF8091CE028F7D76
:10358000A5CF8091CE028F7BA1CF0E94360B809178
:10359000CE028F779BCF8091CE02837F97CF809191
:1035A000CF028C7F99CF8091CE0282FB992790F930
:1035B00021E0922790FB82F990FB83F987CF8091DD
:1035C000CF02982F909591708E7F892B90FB81F977
:1035D00083CF9091CE02892F8F7B96FF806476CF28
:1035E0000E94360B9091CE02892F97FB87F9805865
:1035F0006DCF81E00E9472118091CE029091CF0236
:103600000E94EC100E94360B80E0DF91CF9108956C
:1036100080E0F0CF9091CE02892F8F7E94FF806161
:1036200055CF9091CE02892F8E7F90FF81604ECF33
:103630009091CF02892F877F93FF88604DCF81E0E3
:10364000E4CF282F35EB2303C001112497FF04C0DA
:1036500080589109892F089580589F4FFBCF809102
:10366000B20280FF0DC06091100170E0660F771FFD
:1036700060387105C0F561157105B9F1862F08959F
:1036800081FF07C06091100184E0689FB0011124A0
:10369000EFCF82FF04C06091100188E0F6CF8091E7
:1036A000B1028823E9F090910F016091100170E060
:1036B000891730F093E0660F771F9A95E1F7D8CF1E
:1036C000869F9001879F300D112483E0220F331FC6
:1036D0008A95E1F7692F70E0C9010E94E62CC8CFF6
:1036E00068E070E0CBCF8FE7089581E00895809186
:1036F000B20280FF0CC060910C0170E07595679577
:10370000759567956115710561F1862F089581FFA3
:1037100006C060910C0170E075956795F3CF6091DC
:103720000C0170E082FD15C02091B0022223B1F09F
:1037300090910B0160910C0170E0291750F4269FC5
:10374000A001279F500D1124692F70E0CA010E942B
:10375000E62C60387105B0F28FE7089561E070E003
:10376000D4CF81E00895E3E3E80FE331E0F5F0E042
:10377000EA52F24D0C94FA2C0E942F1B81958093F3
:10378000B60208950E942F1BFACF0E942F1B81952D
:103790008093B50208950E942F1BFACF0E94771BD9
:1037A0008093B70208950E94771B8195F9CF0E94FC
:1037B000771B81958093B80208950E94771BFACFFA
:1037C000815D990B21E030E001C0220F8A95EAF774
:1037D0008091B402822B8093B40208958091B2024A
:1037E00081608093B20208958091B2028260F9CF25
:1037F0008091B2028460F5CF4091B5028D3C59F4BE
:103800008091B60287FF0DC01092B602442359F48E
:103810001092B10208C08E3C81F48091B602181655
:103820009CF3442381F08091B7029091B802892BD8
:10383000811159C01092B00208958F3C41F447FFA6
:10384000F0CF1092B5028091B6028823E0CF803D80
:1038500019F41416B4F3E5CF9091B702893D29F419
:103860001916FCF61092B702DCCF8A3D19F497FFC7
:10387000D8CFF8CF9091B8028B3D29F497FFD1CFE4
:103880001092B802CECF8C3D19F41916CCF3C9CFE3
:103890009FE2980F983090F4815D990B21E030E021
:1038A000B90102C0660F771F8A95E2F7CB018095B8
:1038B0009091B40289238093B402B3CF8D3D31F44B
:1038C0008091B2028E7F8093B202ABCF8E3D21F405
:1038D0008091B2028D7FF7CF8F3D09F0A2CF80910A
:1038E000B2028B7FF0CF08950E94B3232091B502DE
:1038F0003091B602232B222321F08093AE029093C5
:10390000AF022091B7023091B802232B222321F07D
:103910008093AC029093AD0283EB92E00E949221DF
:10392000089586E0E3EBF2E0DF011D928A95E9F766
:103930001092B1021092B0021092B2020895FC01EE
:10394000828181110DC0838181110AC0848181111E
:1039500007C081E09581911101C080E081700895D8
:1039600081E0FCCFA6E0B0E0E8EBFCE10C94142D84
:1039700086E0E3EBF2E09E012F5F3F4FD90101901B
:103980000D928A95E1F71092B5021092B60210924C
:10399000B7021092B8028B819C81892B8901882300
:1039A00091F08091AE029091AF020E94DC239C01C5
:1039B0008091B1028823C9F14091110150E0421772
:1039C000530708F43FC08D819E81892B882399F08D
:1039D0008091AC029091AD020E94DC239C01809109
:1039E000B002882309F467C040910D0150E04217EE
:1039F000530708F46EC0B80183EB92E00E94E42202
:103A0000811105C083EB92E00E949F1C81110E94EE
:103A1000741C86E0F801A3EBB2E001900D928A9548
:103A2000E1F72696E5E00C94302D409112019AE0E2
:103A3000499FA00111244217530728F68F5F8093F6
:103A4000B10202C08F3FD1F7FB80FF2059F00E94E6
:103A50002F1B91E01F140CF09FEF899F802D1124E4
:103A60008093B502FC80FF2059F00E942F1B91E04B
:103A70001F140CF09FEF899F802D11248093B602B4
:103A80008091B502882309F49ECFF090B602FF2002
:103A900009F499CF0E94211B811101C081E080931C
:103AA000B5028F2D0E94211B882319F08093B60246
:103AB0008ACF81E0FBCF40910E019AE0499FA0019F
:103AC00011244217530708F096CF8F5F8093B002FE
:103AD00002C08F3FD1F7FD80FF2059F00E94771B75
:103AE00091E01F140CF09FEF899F802D112480938B
:103AF000B702FE80FF2059F00E94771B91E01F144F
:103B00000CF09FEF899F802D11248093B802809143
:103B1000B702882309F46FCFF090B802FF2009F4B0
:103B20006ACF0E94211B811101C081E08093B702FE
:103B30008F2D0E94211B882319F08093B8025BCF40
:103B400081E0FBCFA0E0B0E0E8EAFDE10C94102DAD
:103B5000E82FF0E0EE5EF54FB490282F26952695DD
:103B6000269530E0F901EE54F54F0491877010E08E
:103B7000082E02C0159507950A94E2F701701127E7
:103B8000F901EE55F54FE490F12C082E02C0F594A2
:103B9000E7940A94E2F791E0E922FF24F901EE5656
:103BA000F54FC491D0E002C0D595C7958A95E2F74C
:103BB000C170DD27C62ED12C0115110549F5E11480
:103BC000F10431F086EE0E944708C601009771F5B6
:103BD000B6018B2D0E94C208C601009779F5E11449
:103BE000F104A1F50115110531F081EE0E948F0855
:103BF000C6010097C9F5CD2B31F08CE20E94DA089E
:103C0000C114D104C9F5CDB7DEB7E9E00C942C2D71
:103C100081EE0E944708C601009789F2EFE9FFE0B4
:103C20003197F1F700C000000197F6CFEFE9FFE010
:103C30003197F1F700C000000197C8CFEFE9FFE02E
:103C40003197F1F700C000000197C7CF86EE0E94C0
:103C50008F08C601009731F2EFE9FFE03197F1F7E5
:103C600000C000000197F6CFEFE9FFE03197F1F7D0
:103C700000C000000197BDCF8FE99FE00197F1F7E9
:103C800000C0000091E0C91AD108BACFEF92FF92AC
:103C90001F93CF93DF93EC01162F8881882309F4BB
:103CA0005AC0813009F053C08981813071F47E019E
:103CB00082E0E80EF11C8A810E94DA08E701812F78
:103CC00090E00097E1F52196E8CF823041F47E0143
:103CD000E2E0EE0EF11C8A810E944708EFCF8330AC
:103CE00041F47E01F2E0EF0EF11C8A810E948F0800
:103CF000E5CF843011F02196E2CF2A81229680E030
:103D000090E06AE0AE014F5F5F4F2053330B2A30E3
:103D1000310550F0009799F2EFE9FFE03197F1F7A4
:103D200000C000000197F6CF689FF001699FF00D79
:103D30001124C9018E0F9F1F2981EA01E3CFEFE90A
:103D4000FFE03197F1F700C000000197BACF612F73
:103D50000E94A21DB8CFDF91CF911F91FF90EF90ED
:103D600008950F931F93CF93DF93C42FD22FFC019D
:103D700085818823C9F04093BB020E94B3239093AE
:103D8000BA028093B90280E28C0F883040F4C77089
:103D900081E001C0880FCA95EAF70E94E308DF912D
:103DA000CF911F910F9108951091BB0214133CC045
:103DB0008091B9029091BA020E94DC23883C91055F
:103DC00098F5C0E2CD0F1D1741F180E2810F8830D8
:103DD00040F4177081E001C0880F1A95EAF70E943D
:103DE000EA08C83020F0802F0E94DA08D8CF91E08E
:103DF0008D2F877001C0990F8A95EAF7892F0E944D
:103E0000E308802F0E94DA08D77081E001C0880F94
:103E1000DA95EAF70E94EA08C2CF802F0E94DA08FA
:103E2000C83008F0BCCFF0CF80E28C0F883008F0AB
:103E3000B6CFC77081E001C0880FCA95EAF7EACF14
:103E40000F93FC01CB01E851FC47E730F10590F5F9
:103E5000E751F24D0C94FA2C06E221EE41EE6AE1B4
:103E60007CE70E94B11E80E00F91089507E225EEE5
:103E700045EE6BE17CE7F5CF06E221EE40EE68E12E
:103E80007CE7EFCF07E225EE44EE69E17CE7E9CF7E
:103E900006E221EE42EE6CE17CE7E3CF07E225EE9D
:103EA00046EE6DE17CE7DDCF08E221E045EE6EE114
:103EB0007CE7D7CFFB01858181111092BB0281E0A5
:103EC000D3CFCF93DF939C01FB0127378CE73807D3
:103ED00039F028373C47F1F081E0DF91CF91089528
:103EE0008581882391F00E94931F0E94B00B0E944D
:103EF000991FD82F0E94961FC82F0E94931F4D2FE5
:103F00006C2F0E94E20C80E0E8CF0E94931F0E9479
:103F1000BC0BEDCF8581882319F00E94961FE5CF59
:103F20000E94961FF4CF809115010895809114018D
:103F3000089580911301089584E290E00E94542D29
:103F4000843289F485E290E00E94542D803159F446
:103F500086E290E00E94542D91E0813309F090E0D8
:103F6000892F8170089580E0FCCF882381F064E27E
:103F700084E290E00E94722D60E185E290E00E9470
:103F8000722D61E386E290E00E94722D08956FEF3A
:103F900084E290E00E94722D6FEF85E290E00E9433
:103FA000722D6FEFEFCF0895A4E0B0E0EAEDFFE1EE
:103FB0000C94172D87E290E00E94542D282F30E0BA
:103FC00040E050E0CA01B9012496E2E00C94332DA0
:103FD0000895CF93C62F0E94E81F6C2F87E290E0D0
:103FE0000E94722DCF91089580E00E94B51F60E07D
:103FF00070E0CB010E94E91F0E94D7180E948C1923
:1040000081E00E94B51F08950E94D31F0E94D41F13
:104010000E94E81F0E949C1F811102C00E94F41F91
:10402000089508959C01FB018581882351F0A90121
:1040300057574038510530F4822F0E949C1980E078
:10404000089581E008952FEFFC01208308950E94D8
:104050002320089580E00895CF92DF92FF920F937E
:104060001F93CF93DF93CDB7DEB72E970FB6F8949B
:10407000DEBF0FBECDBF8D839E83F62E8D819E81C8
:104080000E942A20811115C0AD81BE81EC91E150C2
:10409000E33140F5F0E0E051F24D0C94FA2CED8163
:1040A000FE8111828CE082836F2D8D819E810E9422
:1040B00006262E960FB6F894DEBF0FBECDBFDF9159
:1040C000CF911F910F91FF90DF90CF900895AD8118
:1040D000BE8111968C91833099F148F4813081F042
:1040E0008230E9F08FEFAD81BE818C93DDCF8430DB
:1040F000C9F7ED81FE811282138214821582D4CF1A
:104100000E94BF230E94002D6F83788789879A873A
:10411000ED81FE816283738384839583C5CF0E9482
:10412000D41F0E94002D6B877C878D879E87AD8171
:10413000BE8112966D937D938D939C931597B4CF0A
:10414000ED81FE81028110E06F01B2E0CB0ED11C47
:10415000043011050CF0A8CF802F0E94A014D601C6
:1041600011969C93119712968C930F5F1F4FEDCF72
:10417000ED81FE818181823049F0853009F0B2CF36
:10418000ED81FE8182810E9411208ECFAD81BE81A2
:1041900012968D919D910D90BC91A02D89839A834B
:1041A000AB83BC83BC01CD010E94002D0E94E91F9E
:1041B0007BCFAD81BE8113964C91139712966C9173
:1041C000129711968C910E94991898278927982701
:1041D000ED81FE819583848367CFAD81BE81149686
:1041E0002D913C91159732272327322713964C9116
:1041F000139712966C91129711968C910E94BB188E
:1042000053CF0E94D71850CF6F2D8D819E810E9471
:1042100027204ACF0E944419ED81FE81818344CF3B
:104220000E944619982789279827AD81BE8112964A
:104230009C938E93119738CFED81FE81638170E05E
:1042400081819281AF014C5F5F4F98278927982722
:104250000E94491929CFAD81BE8113966C911397A5
:1042600070E011968D919C911297AD014C5F5F4F5C
:104270009827892798270E946B1916CF0E948C19BE
:1042800013CF0E948718C8CFAD81BE8113966C9161
:10429000139770E011968D919C911297AD014C5F30
:1042A0005F4F9827892798270E94F718FDCEED8148
:1042B000FE81638170E081819281AF014C5F5F4F2D
:1042C0009827892798270E941819EECE9093C1024B
:1042D0008093C0020895E091C002F091C10230972E
:1042E00029F00190F081E02D0995089580E008956E
:1042F000E091C002F091C102309721F00280F38179
:10430000E02D09950895DC01E091C002F091C10211
:10431000309739F086E08C930480F581E02DCD0153
:1043200009950895DC01E091C002F091C102309737
:1043300039F082E08C930680F781E02DCD0109955C
:104340000895A3E0B0E0E7EAF1E20C94172D9C0198
:104350008091BE029091BF0282179307A1F0309323
:10436000BF022093BE02E091C002F091C1023097DB
:1043700051F083E089833B832A830084F185E02D1B
:10438000CE01019609952396E2E00C94332DA3E02B
:10439000B0E0EDECF1E20C94172D9C018091BC0291
:1043A0009091BD0282179307A1F03093BD02209334
:1043B000BC02E091C002F091C102309751F084E05C
:1043C00089833B832A830084F185E02DCE01019609
:1043D00009952396E2E00C94332D2091020130914F
:1043E00003012E5F3F4F809120018823A9F0809127
:1043F000CE0287FF11C020910001309101012E5F94
:104400003F4F9DE180E0F90140812F5F3F4F411117
:104410008F5F9150C0F7089595E0F4CF882321F184
:1044200090912001992311F19091CE0297FF1EC027
:10443000982F969596959695803FB0F4E09100015F
:10444000F0910101E90FF11D228130E0877041E018
:1044500050E0BA0102C0660F771F8A95E2F7262363
:10446000372381E0232B91F480E00895209102010D
:1044700030910301F9013296285F3F4F91919817CF
:1044800021F0E217F307D1F7EFCF81E008959C0107
:10449000FC0132968FEF90E04191461751F08F3F2B
:1044A00019F4411101C0892F9F5F9630A9F78F3F02
:1044B00009F40895280F311D87FD3A95F9016283AB
:1044C00008959C01FC013296285F3F4F819186132D
:1044D00003C0DF0111971C92E217F307B9F70895A3
:1044E000FC01862F869586958695603F60F4E80FDF
:1044F000F11D677021E030E001C0220F6A95EAF7F4
:104500008281822B82830895FC01862F8695869571
:104510008695603F80F4E80FF11D677081E090E0C0
:104520009C0102C0220F331F6A95E2F7B901609522
:104530008281682362830895682F809120018823F7
:1045400059F08091CE0287FF07C0809100019091C1
:1045500001010E947022089580910201909103014F
:104560000E9447220895682F80912001882359F0E6
:104570008091CE0287FF07C08091000190910101D8
:104580000E948422089580910201909103010E946B
:104590006122089580912001882379F08091CE02D4
:1045A00087FF0BC0E0910001F091010132968EE18E
:1045B000DF011D928A95E9F70895E0910201F091DB
:1045C0000301329686E0F4CFDC01FB0111969C9149
:1045D00011978181981322C012968C91129788238B
:1045E00019F0928189131AC013968C91139788231E
:1045F00019F09381891312C015968C911597882311
:1046000019F0958189130AC014969C91992321F081
:1046100081E02481291303C080E001C081E0817022
:10462000089508950E94112308958F5F8093C20218
:104630000E941223089583E08093C2020E941223F5
:1046400008950E941523089581E08093C2020E947C
:10465000122308950E9424230895089508950E9426
:104660002E230895089508950E942D230895CF9331
:104670000E9432230E9465150E943323C0E08C2FD4
:104680000E94A014892B31F4CF5FC430C1F780E0C1
:10469000CF91089581E0FCCF85B7806885BF85B74D
:1046A000806885BF08951F921FB61F9211248F93B3
:1046B0009F93AF93BF938091C302811113C08091E8
:1046C000E6049091E704A091E804B091E9044196D2
:1046D000A11DB11D8093E6049093E704A093E80424
:1046E000B093E904BF91AF919F918F911F901FBE2E
:1046F0001F9018958091EE04843031F10E94C0071C
:104700001092C30288E190E020E40FB6F894A895D7
:10471000809360000FBE2093600083B7817F846028
:1047200083BF83B7816083BF7894889583B78E7F7A
:1047300083BF0FB6F894A89580916000886180933C
:104740006000109260000FBE08950E94360B0E9418
:10475000C707089582E084BD93E095BD9AEF97BDA9
:1047600080936E0008952FB7F8948091E60490919D
:10477000E704A091E804B091E9042FBF0895A4E0F4
:10478000B0E0E5ECF3E20C94172D8FB7F89420918C
:10479000E6043091E7044091E8045091E90429834C
:1047A0003A834B835C838FBF69817A818B819C8143
:1047B0002496E2E00C94332D9C014FB7F89480913D
:1047C000E6049091E704A091E804B091E9044FBF9A
:1047D000821B930B089578941F921FB61F92112489
:1047E0008F939F93AF93BF938091E6049091E704DA
:1047F000A091E804B091E9040196A11DB11D809338
:10480000E6049093E704A093E804B093E904BF9111
:10481000AF919F918F911F901FBE1F90189581E0BF
:104820008093E00080E28093D8001092C9008FE16D
:104830009EE40197F1F700C0000087E090EBDC01F7
:104840008093F7049093F804A093F904B093FA04CA
:1048500088E19CE00FB6F894A895809360000FBEA5
:1048600090936000FFCF88E19CE00FB6F894A89584
:10487000809360000FBE90936000FFCFFF920F9374
:104880001F93CF93DF93182FEB011092BC0084EAA3
:104890008093BC000E94B323082FF92E8091BC00A6
:1048A00087FF28C08091B900887F883029F08091E7
:1048B000B900887F8031A1F51093BB0084E8809314
:1048C000BC000E94B323182F092F8091BC0087FFE2
:1048D0001FC02091B900287F80E090E0283199F036
:1048E00081E090E0203411F480E090E09195819592
:1048F000910909C0802F9F2D0E94DC23C817D9077A
:1049000068F68EEF9FEFCDB7DEB7E5E00C94302D63
:10491000812F902F0E94DC23C817D907B0F6F1CF62
:104920008FEF9FEFF0CF1092B9008CE08093B8002A
:1049300008950F931F93CF93DF93EB018093BB00F8
:1049400084E88093BC000E94B323182F092F809124
:10495000BC0087FF11C02091B900287F81E090E062
:10496000283211F480E090E0919581959109DF91D2
:10497000CF911F910F910895CF3FDC0741F3812F15
:10498000902F0E94DC23C817D90708F78EEF9FEFFE
:10499000EECFA0E0B0E0EFECF4E20C940C2D782E1A
:1049A0005B016A0189010E94B3234C0104311105A6
:1049B00060F10F3F100769F1C80164E170E00E94E7
:1049C000D22CF62EE72E6F2D7E2D872D0E943E24B1
:1049D000EC0197FF09C00F3F1007A9F3C4010E9423
:1049E000DC230817190778F77501CA0CDB1CEC14D7
:1049F000FD0411F0D7FF10C084E98093BC00CE0104
:104A0000CDB7DEB7EDE00C94282DFF24F394E12C14
:104A1000DACF85E0F82EFBCFB801F70181917F0155
:104A20000E949924EC01E3CFA0E0B0E0EAE1F5E2D6
:104A30000C940C2D782E5B016A0189010E94B3232E
:104A40004C010431110560F10F3F100769F1C801F5
:104A500064E170E00E94D22CF62EE72E6F2D7E2DA1
:104A6000872D0E943E24EC0197FF09C00F3F1007DD
:104A7000A9F3C4010E94DC230817190778F7750110
:104A8000CA0CDB1CEC14FD0411F0D7FF10C084E944
:104A90008093BC00CE01CDB7DEB7EDE00C94282D9D
:104AA000FF24F394E12CDACF85E0F82EFBCFF70159
:104AB0008491B8010E949924EC01FFEFEF1AFF0ADC
:104AC000E1CFA0E0B0E0E7E6F5E20C940B2D682E14
:104AD000962E5A01690178010E94B323782E892EFF
:104AE0000431110530F10F3F100731F1C80164E1C5
:104AF00070E00E94D22C162F072F612F702F862D69
:104B00000E943E24EC0197FF19C0FFEFEF16FF064D
:104B1000A1F3872D982D0E94DC23E816F90668F78B
:104B200084E98093BC00CE01CDB7DEB7EEE00C94F3
:104B3000272D11E000E0E1CF15E0FCCFB701892D72
:104B40000E949924EC018501CA0CDB1C0C151D0583
:104B500039F3D7FDE5CFB701F80181918F010E94AC
:104B60009924EC01F3CF8091CC020895282FCB013A
:104B7000BA013091EE043430E1F42F702093E90053
:104B80002FEF3091E80035FD07C035ED3A95F1F78C
:104B9000000021502111F5CF2091E80025FF09C028
:104BA00040E050E00E9401288091E8008E778093D9
:104BB000E8000895BC0143E050E084E00E94B6257F
:104BC0000895BC0146E050E084E00E94B6250895B7
:104BD000BC0140E250E084E00E94B6250895CF93E6
:104BE000DF93D82FC92F48E050E0682F792F81E05C
:104BF0000E94B62588E0ED2FFC2FA4ECB2E00190D6
:104C00000D928A95E1F7DF91CF910895792F603267
:104C100031F440E250E0682F82E00E94B62508950A
:104C2000A0E2B0E0E6E1F6E20C94172D8091EE04EC
:104C3000843081F483E08093E9008091E80082FF72
:104C400009C08091E80085FD09C08091E8008B775C
:104C50008093E800A096E2E00C94332D40E050E011
:104C600060E270E0CE0101960E9450288091E80039
:104C70008B778093E80060E2CE0101960E942C20A1
:104C8000E9CF8091ED04811109C00E94D8290E94CA
:104C9000352A8091E20084608093E20008951092AA
:104CA000ED0408950E94242308956091EA0481E0B0
:104CB000611101C080E00E941B2308959091EE04D1
:104CC00081E0943009F080E06091EA040E942123A1
:104CD000089542E061EC81E00E94542942E261ECD7
:104CE00084E00E94542942E261EC82E00E9454294F
:104CF00042E260EC83E00E9454299091EE0481E04E
:104D0000943009F080E06091EA040E941523089530
:104D10008091F004893089F148F4823009F4A1C00F
:104D2000833009F45BC0813041F008958A3009F482
:104D300088C08B3009F46DC008958091EF04813AEA
:104D400009F04BC08091E800877F8093E800809154
:104D5000F3049091F404892B61F060E080E090E02E
:104D600070E00E949F288091E8008B778093E80094
:104D7000089568E084EC92E0F3CF8091EF048132F3
:104D800061F58091F3049091F4048D7F892B29F5CE
:104D90008091E800877F8093E8008091E80082FF9F
:104DA00018C09091F3008091F200029731F4809145
:104DB000F100813011F0863021F48091F100809370
:104DC000CC028091E8008B778093E8000E948829CC
:104DD00004C08091EE048111E0CF08958091EF042A
:104DE000813AD9F78091F3049091F404892BA9F7C3
:104DF0008091E800877F8093E8008091E80080FF41
:104E0000FCCF809120018093F1008091E8008E77A3
:104E1000DBCF8091EF04813201F78091F304909110
:104E2000F404892BD1F68091E800877F8093E80015
:104E30000E9488298091F104809320010E94360B02
:104E400008958091EF04813241F68091E800877FD8
:104E50008093E8000E9488298091F2048093CD021B
:104E600008958091EF04813A09F0B7CF8091E8006E
:104E7000877F8093E8008091E80080FFFCCF8091DD
:104E8000CD02C1CF84B7877F84BF0FB6F894A895B1
:104E900080916000886180936000109260000FBE76
:104EA00080E890E00FB6F8948093610090936100E1
:104EB0000FBE0E942A2308950E94D8290E94352AF5
:104EC000E2EEF0E080818460808378940E94B82CC8
:104ED000089586E191E00E94662108958091EE0494
:104EE000853031F48091EE04853019F00E94A523BD
:104EF00008950E947A230E943723882399F3809192
:104F0000EC04882379F30E94EB270E94360BEACF4A
:104F100008959A014091F5045091F6040E9491275A
:104F20000895AC01CB01D901252F3327233031055A
:104F300021F168F42130310509F443C022303105F4
:104F400009F444C080E090E020E030E024C0213249
:104F5000310551F122323105A9F78330910590F7DF
:104F6000FC01EE0FFF1FE255FE4F20813181855578
:104F70009E4FFC01808190E00EC0CA01992741300C
:104F800069F08230910569F0E6EDFAE0892BD1F6FF
:104F9000849190E09F012D933C930895EEECFAE00C
:104FA000F7CFE2ECFAE0F4CF8330910558F6FC013C
:104FB000EE0FFF1FEC54FE4F2081318189E090E01D
:104FC000EACF82E190E025E33BE0E5CF8BE590E09E
:104FD0002AED3AE0E0CF80E189BD82E189BD09B4E4
:104FE00000FEFDCF8091D8008F7D8093D800809106
:104FF000E00082608093E0008091E00081FDFCCFC2
:105000000895AF92BF92CF92DF92FF920F931F93BA
:10501000CF93DF936C01EB018A010E94A729F82E40
:10502000811123C00115110539F0F80180819181AA
:10503000C81BD90BC80ED91EA12CB12C2097A9F0E2
:105040008091E80085FD22C08091E8008E778093F2
:10505000E80001151105A1F0F801808191818A0D08
:105060009B1D9183808385E0F82E8F2DDF91CF915A
:105070001F910F91FF90DF90CF90BF90AF90089558
:105080000E94A7298823E1F2F82EEFCFF601819143
:105090006F018093F1002197FFEFAF1ABF0ACECFC7
:1050A000AF92BF92CF92DF92FF920F931F93CF9355
:1050B000DF936C01EB018A010E94A729F82E811170
:1050C00023C00115110539F0F80180819181C81BB9
:1050D000D90BC80ED91EA12CB12C2097A9F0809114
:1050E000E80085FD22C08091E8008B778093E8007E
:1050F00001151105A1F0F801808191818A0D9B1D98
:105100009183808385E0F82E8F2DDF91CF911F91C1
:105110000F91FF90DF90CF90BF90AF9008950E94C5
:10512000A7298823E1F2F82EEFCF8091F100F60154
:1051300081936F012197FFEFAF1ABF0ACECFFC0119
:105140009B018091F5049091F6048617970718F05B
:10515000672B61F0C90140E0009771F441110CC068
:105160008091E80082FF35C080E008958091E800DA
:105170008E778093E800EECF2091EE042223A9F1F0
:105180002530A9F12091E80023FD2DC02091E800F1
:1051900022FDE6CF2091E80020FFDECF3091F30022
:1051A0002091F200009719F02830310558F041E0C5
:1051B0002830310509F040E02091E8002E77209357
:1051C000E800CACF41914093F10001972F5F3F4F14
:1051D000E9CF8091EE04882341F0853041F0809141
:1051E000E80083FFBDCF81E0089582E0089583E069
:1051F0000895FC019B018091F5049091F6048617B7
:10520000970718F0672B61F0C90140E0009771F42F
:1052100041110CC08091E80082FF36C080E0089503
:105220008091E8008E778093E800EECF2091EE0425
:105230002223B1F12530B1F12091E80023FD2EC0E9
:105240002091E80022FDE6CF2091E80020FFDECF8C
:105250003091F3002091F200009719F028303105C9
:1052600058F041E02830310509F040E02091E80095
:105270002E772093E800CACF44914093F1003196F5
:1052800001972F5F3F4FE8CF8091EE04882341F0D4
:10529000853041F08091E80083FFBCCF81E0089524
:1052A00082E0089583E00895982F973028F08F705A
:1052B0008093E90081E008959093E900242F762FF0
:1052C00050E0981731F07091EC002091ED00509172
:1052D000F00021FD02C09F5FE8CF3091EB003E7FE0
:1052E0003093EB003091ED003D7F3093ED00309135
:1052F000EB0031603093EB007093EC002093ED00F5
:105300005093F0002091EE0027FDE5CF80E0089556
:105310008091EF0487FF13C08091E80082FF06C0F0
:105320008091E8008B778093E80004C08091EE04C0
:105330008111F2CF08958091EE048823D9F38091F2
:10534000E80080FFF8CF8091E8008E77ECCF2091C5
:10535000E4003091E50095E6A9018091EC008170B0
:10536000882331F08091E80080FF06C080E0089536
:105370002091E80022FD1BC08091EE04882391F06B
:10538000853091F08091EB0085FD10C02091E40004
:105390003091E5004217530701F391509111DCCF92
:1053A00084E0089582E0089583E0089581E00895FF
:1053B0000E94472A0E944F2AE0EEF0E0808181603F
:1053C0008083E8EDF0E080818F77808319BCA7EDC2
:1053D000B0E08C918E7F8C9380818F7E8083109241
:1053E000ED0408950F931F93CF93DF930E94472AF4
:1053F0000E944F2AC8EDD0E088818F77888388810A
:105400008068888388818F7D888319BC1092EE0420
:105410001092EA041092EC041092EB0400EE10E0FB
:10542000F80180818B7F808388818160888342E05E
:1054300060E080E00E945429E1EEF0E080818E7F00
:105440008083E2EEF0E080818160808380818860EB
:105450008083F80180818E7F80838881806188834A
:10546000DF91CF911F910F910895E8EDF0E08081D9
:105470008F7E8083E7EDF0E080818160808384E02F
:1054800082BF81E08093ED040E94F2290895E8ED47
:10549000F0E080818E7F80831092E2000895109268
:1054A000DA001092E10008951F920F920FB60F924A
:1054B00011242F933F934F935F936F937F938F9319
:1054C0009F93AF93BF93EF93FF938091E10082FF8F
:1054D0000BC08091E20082FF07C08091E1008B7FCA
:1054E0008093E1000E94B72C8091DA0080FF19C000
:1054F0008091D80080FF15C08091DA008E7F809364
:10550000DA008091D90080FF94C080E189BD82E1FA
:1055100089BD09B400FEFDCF81E08093EE040E94B6
:1055200041268091E10080FF19C08091E20080FF58
:1055300015C08091E2008E7F8093E2008091E200AE
:1055400080618093E2008091D80080628093D800CF
:1055500019BC85E08093EE040E9455268091E100FD
:1055600084FF29C08091E20084FF25C080E189BDCD
:1055700082E189BD09B400FEFDCF8091D8008F7D06
:105580008093D8008091E1008F7E8093E10080912C
:10559000E2008F7E8093E2008091E2008160809340
:1055A000E2008091EA04882309F449C084E08093F2
:1055B000EE040E945E268091E10083FF29C0809165
:1055C000E20083FF25C08091E100877F8093E100A6
:1055D00082E08093EE041092EA048091E1008E7FD5
:1055E0008093E1008091E2008E7F8093E2008091C1
:1055F000E20080618093E20042E060E080E00E948F
:1056000054298091F00088608093F0000E94522617
:10561000FF91EF91BF91AF919F918F917F916F918A
:105620005F914F913F912F910F900FBE0F901F9060
:10563000189519BC1092EE040E944F2672CF8091EB
:10564000E30087FF02C083E0B2CF81E0B0CF1F92BA
:105650000F920FB60F921124FF920F931F932F9367
:105660003F934F935F936F937F938F939F93AF93EA
:10567000BF93CF93DF93EF93FF9309EE10E0F80110
:105680008081C091EC00C795CC27C7958F70FC2E08
:10569000F82A1082C0EFD0E08881877F88837894D1
:1056A0000E94702BF8011082888188608883CF2D3A
:1056B000CF70C083FF91EF91DF91CF91BF91AF91F8
:1056C0009F918F917F916F915F914F913F912F911A
:1056D0001F910F91FF900F900FBE0F901F90189584
:1056E000AAE2B0E0E6E7FBE20C94162D8FEE94E020
:1056F000FC0101962091F100208324E0873F92076E
:10570000B9F70E9488268091E80083FF38C0809115
:10571000EF049091F0049A3090F5E92FF0E0ED5FFE
:10572000F14D0C94FA2C803889F0823841F5809143
:10573000F3048F70873018F58093E9008091EB00B7
:1057400085FB882780F91092E90006C08091EB0460
:105750009091EC04911182609091E800977F909372
:10576000E8008093F1001092F1008091E8008E77BC
:1057700023C0811116C08091F104813011F1809114
:10578000E80083FF0AC08091E800877F8093E800EB
:105790008091EB0080628093EB00AA96E3E00C948A
:1057A000322D823061F78091F104882389F01092C4
:1057B000E9008091E800877F8093E8000E948829B3
:1057C000DECF81E0933009F080E08093EC04EFCFEE
:1057D0008091F3048F702FEF280F263080F680938E
:1057E000E9002091EB0020FFE2CF933031F480916B
:1057F000EB0080628093EB00DACF9091EB00906138
:105800009093EB0021E030E0A90102C0440F551F46
:105810008A95E2F74093EA001092EA008091EB004B
:105820008860E8CF8111ABCF1091F1041F77809190
:10583000E3008078812B8093E3008091E800877FEC
:105840008093E8000E9488298091E80080FFFCCFC7
:105850008091E30080688093E30083E0111101C030
:1058600082E08093EE048BCF8058823008F087CF9F
:105870008091F1049091F2048C3D53E0950799F5E5
:1058800083E08A838AE289834FB7F894DE01139616
:1058900020E03EE051E2E32FF0E050935700849186
:1058A00020FF03C082958F703F5F8F708A30C8F0F1
:1058B000895C90E08D939D932F5F243161F74FBFFA
:1058C0008091E800877F8093E8006AE270E0CE0173
:1058D00001960E949F288091E8008B778093E800D2
:1058E0004ECF805DE6CF6091F3047091F404AE0179
:1058F0004F5F5F4F0E948927BC01892B09F43FCF7E
:105900008091E800877F8093E80089819A810E94D6
:10591000F928E1CF803809F032CF8091E800877F05
:105920008093E8008091EA048093F1001ECF8111FA
:1059300026CF9091F104923008F021CF8091E800B9
:10594000877F8093E8009093EA040E9488298091E1
:10595000EA04882331F084E08093EE040E946926F3
:105960000ECF8091E30087FDF6CF81E0F5CF08955B
:10597000CF938091EE04882399F08091E900C09143
:10598000EC00C795CC27C7958F70C82B1092E90003
:105990008091E80083FD0E94702BCF70C093E900D6
:1059A000CF910895AA1BBB1B51E107C0AA1FBB1FC3
:1059B000A617B70710F0A61BB70B881F991F5A959B
:1059C000A9F780959095BC01CD01089597FB072E0E
:1059D00016F4009407D077FD09D00E94D22C07FC62
:1059E00005D03EF4909581959F4F089570956195EF
:1059F0007F4F0895EE0FFF1F0590F491E02D09945D
:105A000069279627692778278727782708952F926F
:105A10003F924F925F926F927F928F929F92AF923E
:105A2000BF92CF92DF92EF92FF920F931F93CF938B
:105A3000DF93CDB7DEB7CA1BDB0B0FB6F894DEBF22
:105A40000FBECDBF09942A88398848885F846E8448
:105A50007D848C849B84AA84B984C884DF80EE8092
:105A6000FD800C811B81AA81B981CE0FD11D0FB69B
:105A7000F894DEBF0FBECDBFED010895FB01DC0140
:105A800004C08D910190801921F441505040C8F715
:105A9000881B990B0895FB01DC0102C001900D9257
:105AA00041505040D8F70895F999FECF92BD81BD7D
:105AB000F89A992780B50895A8E1B0E042E050E057
:105AC0000C94982DDC01A40FB51F4150504048F0B4
:105AD000CB01840F951F2E910E94732D4150504091
